{
  "_format": "hh-sol-artifact-1",
  "contractName": "Authentication",
  "sourceName": "contracts/Authentication.sol",
  "abi": [
    {
      "inputs": [
        {
          "internalType": "address",
          "name": "caller",
          "type": "address"
        }
      ],
      "name": "getIsNotLoggedIn",
      "outputs": [
        {
          "internalType": "bool",
          "name": "",
          "type": "bool"
        }
      ],
      "stateMutability": "view",
      "type": "function"
    },
    {
      "inputs": [
        {
          "internalType": "address",
          "name": "caller",
          "type": "address"
        }
      ],
      "name": "getIsNotRegistered",
      "outputs": [
        {
          "internalType": "bool",
          "name": "",
          "type": "bool"
        }
      ],
      "stateMutability": "view",
      "type": "function"
    },
    {
      "inputs": [
        {
          "internalType": "string",
          "name": "_userName",
          "type": "string"
        }
      ],
      "name": "getIsUserNameExist",
      "outputs": [
        {
          "internalType": "bool",
          "name": "",
          "type": "bool"
        }
      ],
      "stateMutability": "view",
      "type": "function"
    },
    {
      "inputs": [
        {
          "internalType": "address",
          "name": "caller",
          "type": "address"
        }
      ],
      "name": "getIsUserRegistered",
      "outputs": [
        {
          "internalType": "bool",
          "name": "",
          "type": "bool"
        }
      ],
      "stateMutability": "view",
      "type": "function"
    },
    {
      "inputs": [
        {
          "internalType": "address",
          "name": "caller",
          "type": "address"
        }
      ],
      "name": "getMustLoggedIn",
      "outputs": [
        {
          "internalType": "bool",
          "name": "",
          "type": "bool"
        }
      ],
      "stateMutability": "view",
      "type": "function"
    },
    {
      "inputs": [
        {
          "internalType": "address",
          "name": "caller",
          "type": "address"
        }
      ],
      "name": "getUserInfo",
      "outputs": [
        {
          "internalType": "address",
          "name": "userAddress",
          "type": "address"
        },
        {
          "internalType": "string",
          "name": "userName",
          "type": "string"
        },
        {
          "internalType": "uint256",
          "name": "registerTime",
          "type": "uint256"
        }
      ],
      "stateMutability": "view",
      "type": "function"
    },
    {
      "inputs": [
        {
          "internalType": "address",
          "name": "caller",
          "type": "address"
        }
      ],
      "name": "logIn",
      "outputs": [],
      "stateMutability": "nonpayable",
      "type": "function"
    },
    {
      "inputs": [
        {
          "internalType": "address",
          "name": "caller",
          "type": "address"
        }
      ],
      "name": "logOut",
      "outputs": [],
      "stateMutability": "nonpayable",
      "type": "function"
    },
    {
      "inputs": [
        {
          "internalType": "string",
          "name": "_userName",
          "type": "string"
        },
        {
          "internalType": "address",
          "name": "caller",
          "type": "address"
        }
      ],
      "name": "register",
      "outputs": [],
      "stateMutability": "nonpayable",
      "type": "function"
    }
  ],
  "bytecode": "0x608060405234801561001057600080fd5b506112e5806100206000396000f3fe608060405234801561001057600080fd5b50600436106100935760003560e01c8063597857121161006657806359785712146101445780636386c1c714610174578063b8673f2c146101a6578063b918f043146101c2578063c6e3fef6146101f257610093565b80631dd01d53146100985780631e59c529146100c857806325442f7b146100e457806343b35f4c14610114575b600080fd5b6100b260048036038101906100ad9190610a2f565b61020e565b6040516100bf9190610a77565b60405180910390f35b6100e260048036038101906100dd9190610bd8565b610264565b005b6100fe60048036038101906100f99190610a2f565b6104ca565b60405161010b9190610a77565b60405180910390f35b61012e60048036038101906101299190610a2f565b610520565b60405161013b9190610a77565b60405180910390f35b61015e60048036038101906101599190610c34565b610575565b60405161016b9190610a77565b60405180910390f35b61018e60048036038101906101899190610a2f565b6105ab565b60405161019d93929190610d24565b60405180910390f35b6101c060048036038101906101bb9190610a2f565b61070d565b005b6101dc60048036038101906101d79190610a2f565b6107f4565b6040516101e99190610a77565b60405180910390f35b61020c60048036038101906102079190610a2f565b61084b565b005b60008060008373ffffffffffffffffffffffffffffffffffffffff1673ffffffffffffffffffffffffffffffffffffffff16815260200190815260200160002060009054906101000a900460ff16159050919050565b6000803373ffffffffffffffffffffffffffffffffffffffff1673ffffffffffffffffffffffffffffffffffffffff16815260200190815260200160002060009054906101000a900460ff16156102f0576040517f08c379a00000000000000000000000000000000000000000000000000000000081526004016102e790610dae565b60405180910390fd5b816002816040516103019190610e0a565b908152602001604051809103902060009054906101000a900460ff161561035d576040517f08c379a000000000000000000000000000000000000000000000000000000000815260040161035490610e6d565b60405180910390fd5b60405180606001604052808481526020018373ffffffffffffffffffffffffffffffffffffffff16815260200142815250600360008473ffffffffffffffffffffffffffffffffffffffff1673ffffffffffffffffffffffffffffffffffffffff16815260200190815260200160002060008201518160000190816103e29190611099565b5060208201518160010160006101000a81548173ffffffffffffffffffffffffffffffffffffffff021916908373ffffffffffffffffffffffffffffffffffffffff1602179055506040820151816002015590505060016000808473ffffffffffffffffffffffffffffffffffffffff1673ffffffffffffffffffffffffffffffffffffffff16815260200190815260200160002060006101000a81548160ff02191690831515021790555060016002846040516104a09190610e0a565b908152602001604051809103902060006101000a81548160ff021916908315150217905550505050565b6000600160008373ffffffffffffffffffffffffffffffffffffffff1673ffffffffffffffffffffffffffffffffffffffff16815260200190815260200160002060009054906101000a900460ff169050919050565b60008060008373ffffffffffffffffffffffffffffffffffffffff1673ffffffffffffffffffffffffffffffffffffffff16815260200190815260200160002060009054906101000a900460ff169050919050565b60006002826040516105879190610e0a565b908152602001604051809103902060009054906101000a900460ff16159050919050565b60006060600080600360008673ffffffffffffffffffffffffffffffffffffffff1673ffffffffffffffffffffffffffffffffffffffff16815260200190815260200160002060405180606001604052908160008201805461060c90610ebc565b80601f016020809104026020016040519081016040528092919081815260200182805461063890610ebc565b80156106855780601f1061065a57610100808354040283529160200191610685565b820191906000526020600020905b81548152906001019060200180831161066857829003601f168201915b505050505081526020016001820160009054906101000a900473ffffffffffffffffffffffffffffffffffffffff1673ffffffffffffffffffffffffffffffffffffffff1673ffffffffffffffffffffffffffffffffffffffff1681526020016002820154815250509050806020015181600001518260400151935093509350509193909250565b600160003373ffffffffffffffffffffffffffffffffffffffff1673ffffffffffffffffffffffffffffffffffffffff16815260200190815260200160002060009054906101000a900460ff16610799576040517f08c379a0000000000000000000000000000000000000000000000000000000008152600401610790906111b7565b60405180910390fd5b6000600160008373ffffffffffffffffffffffffffffffffffffffff1673ffffffffffffffffffffffffffffffffffffffff16815260200190815260200160002060006101000a81548160ff02191690831515021790555050565b6000600160008373ffffffffffffffffffffffffffffffffffffffff1673ffffffffffffffffffffffffffffffffffffffff16815260200190815260200160002060009054906101000a900460ff16159050919050565b6000803373ffffffffffffffffffffffffffffffffffffffff1673ffffffffffffffffffffffffffffffffffffffff16815260200190815260200160002060009054906101000a900460ff166108d6576040517f08c379a00000000000000000000000000000000000000000000000000000000081526004016108cd90611223565b60405180910390fd5b600160003373ffffffffffffffffffffffffffffffffffffffff1673ffffffffffffffffffffffffffffffffffffffff16815260200190815260200160002060009054906101000a900460ff1615610963576040517f08c379a000000000000000000000000000000000000000000000000000000000815260040161095a9061128f565b60405180910390fd5b60018060008373ffffffffffffffffffffffffffffffffffffffff1673ffffffffffffffffffffffffffffffffffffffff16815260200190815260200160002060006101000a81548160ff02191690831515021790555050565b6000604051905090565b600080fd5b600080fd5b600073ffffffffffffffffffffffffffffffffffffffff82169050919050565b60006109fc826109d1565b9050919050565b610a0c816109f1565b8114610a1757600080fd5b50565b600081359050610a2981610a03565b92915050565b600060208284031215610a4557610a446109c7565b5b6000610a5384828501610a1a565b91505092915050565b60008115159050919050565b610a7181610a5c565b82525050565b6000602082019050610a8c6000830184610a68565b92915050565b600080fd5b600080fd5b6000601f19601f8301169050919050565b7f4e487b7100000000000000000000000000000000000000000000000000000000600052604160045260246000fd5b610ae582610a9c565b810181811067ffffffffffffffff82111715610b0457610b03610aad565b5b80604052505050565b6000610b176109bd565b9050610b238282610adc565b919050565b600067ffffffffffffffff821115610b4357610b42610aad565b5b610b4c82610a9c565b9050602081019050919050565b82818337600083830152505050565b6000610b7b610b7684610b28565b610b0d565b905082815260208101848484011115610b9757610b96610a97565b5b610ba2848285610b59565b509392505050565b600082601f830112610bbf57610bbe610a92565b5b8135610bcf848260208601610b68565b91505092915050565b60008060408385031215610bef57610bee6109c7565b5b600083013567ffffffffffffffff811115610c0d57610c0c6109cc565b5b610c1985828601610baa565b9250506020610c2a85828601610a1a565b9150509250929050565b600060208284031215610c4a57610c496109c7565b5b600082013567ffffffffffffffff811115610c6857610c676109cc565b5b610c7484828501610baa565b91505092915050565b610c86816109f1565b82525050565b600081519050919050565b600082825260208201905092915050565b60005b83811015610cc6578082015181840152602081019050610cab565b60008484015250505050565b6000610cdd82610c8c565b610ce78185610c97565b9350610cf7818560208601610ca8565b610d0081610a9c565b840191505092915050565b6000819050919050565b610d1e81610d0b565b82525050565b6000606082019050610d396000830186610c7d565b8181036020830152610d4b8185610cd2565b9050610d5a6040830184610d15565b949350505050565b7f5573657220657869737400000000000000000000000000000000000000000000600082015250565b6000610d98600a83610c97565b9150610da382610d62565b602082019050919050565b60006020820190508181036000830152610dc781610d8b565b9050919050565b600081905092915050565b6000610de482610c8c565b610dee8185610dce565b9350610dfe818560208601610ca8565b80840191505092915050565b6000610e168284610dd9565b915081905092915050565b7f557365726e616d65206973204578697374000000000000000000000000000000600082015250565b6000610e57601183610c97565b9150610e6282610e21565b602082019050919050565b60006020820190508181036000830152610e8681610e4a565b9050919050565b7f4e487b7100000000000000000000000000000000000000000000000000000000600052602260045260246000fd5b60006002820490506001821680610ed457607f821691505b602082108103610ee757610ee6610e8d565b5b50919050565b60008190508160005260206000209050919050565b60006020601f8301049050919050565b600082821b905092915050565b600060088302610f4f7fffffffffffffffffffffffffffffffffffffffffffffffffffffffffffffffff82610f12565b610f598683610f12565b95508019841693508086168417925050509392505050565b6000819050919050565b6000610f96610f91610f8c84610d0b565b610f71565b610d0b565b9050919050565b6000819050919050565b610fb083610f7b565b610fc4610fbc82610f9d565b848454610f1f565b825550505050565b600090565b610fd9610fcc565b610fe4818484610fa7565b505050565b5b8181101561100857610ffd600082610fd1565b600181019050610fea565b5050565b601f82111561104d5761101e81610eed565b61102784610f02565b81016020851015611036578190505b61104a61104285610f02565b830182610fe9565b50505b505050565b600082821c905092915050565b600061107060001984600802611052565b1980831691505092915050565b6000611089838361105f565b9150826002028217905092915050565b6110a282610c8c565b67ffffffffffffffff8111156110bb576110ba610aad565b5b6110c58254610ebc565b6110d082828561100c565b600060209050601f83116001811461110357600084156110f1578287015190505b6110fb858261107d565b865550611163565b601f19841661111186610eed565b60005b8281101561113957848901518255600182019150602085019450602081019050611114565b868310156111565784890151611152601f89168261105f565b8355505b6001600288020188555050505b505050505050565b7f55736572206973206e6f74204c6f6767656420696e0000000000000000000000600082015250565b60006111a1601583610c97565b91506111ac8261116b565b602082019050919050565b600060208201905081810360008301526111d081611194565b9050919050565b7f5573657220646f65736e27742065786973740000000000000000000000000000600082015250565b600061120d601283610c97565b9150611218826111d7565b602082019050919050565b6000602082019050818103600083015261123c81611200565b9050919050565b7f5573657220697320616c7265616479206c6f6767656420496e00000000000000600082015250565b6000611279601983610c97565b915061128482611243565b602082019050919050565b600060208201905081810360008301526112a88161126c565b905091905056fea264697066735822122070bbc69631f83db08685bce9a244e929fc625be5040b9f61fd73b3d6451ca9fc64736f6c63430008180033",
  "linkReferences": {},
  "deployedLinkReferences": {}
}