{
  "_format": "hh-sol-artifact-1",
  "contractName": "Twitter",
  "sourceName": "contracts/Twitter.sol",
  "abi": [
    {
      "inputs": [
        {
          "internalType": "address",
          "name": "_iAuthentication",
          "type": "address"
        }
      ],
      "stateMutability": "nonpayable",
      "type": "constructor"
    },
    {
      "inputs": [
        {
          "internalType": "bytes4",
          "name": "_postId",
          "type": "bytes4"
        },
        {
          "internalType": "string",
          "name": "_comment",
          "type": "string"
        }
      ],
      "name": "addComment",
      "outputs": [],
      "stateMutability": "nonpayable",
      "type": "function"
    },
    {
      "inputs": [
        {
          "internalType": "bytes4",
          "name": "_commentId",
          "type": "bytes4"
        }
      ],
      "name": "addLikeOnComments",
      "outputs": [],
      "stateMutability": "nonpayable",
      "type": "function"
    },
    {
      "inputs": [
        {
          "internalType": "bytes4",
          "name": "_commentId",
          "type": "bytes4"
        },
        {
          "internalType": "string",
          "name": "_reply",
          "type": "string"
        }
      ],
      "name": "addReply",
      "outputs": [],
      "stateMutability": "nonpayable",
      "type": "function"
    },
    {
      "inputs": [
        {
          "internalType": "string",
          "name": "_content",
          "type": "string"
        }
      ],
      "name": "createPost",
      "outputs": [],
      "stateMutability": "nonpayable",
      "type": "function"
    },
    {
      "inputs": [
        {
          "internalType": "bytes4",
          "name": "_postId",
          "type": "bytes4"
        }
      ],
      "name": "deletePost",
      "outputs": [],
      "stateMutability": "nonpayable",
      "type": "function"
    },
    {
      "inputs": [
        {
          "internalType": "bytes4",
          "name": "_postId",
          "type": "bytes4"
        }
      ],
      "name": "disLikePost",
      "outputs": [],
      "stateMutability": "nonpayable",
      "type": "function"
    },
    {
      "inputs": [
        {
          "internalType": "bytes4",
          "name": "_commentId",
          "type": "bytes4"
        }
      ],
      "name": "dislikeOnComments",
      "outputs": [],
      "stateMutability": "nonpayable",
      "type": "function"
    },
    {
      "inputs": [],
      "name": "getAllPosts",
      "outputs": [
        {
          "internalType": "bytes4[]",
          "name": "",
          "type": "bytes4[]"
        }
      ],
      "stateMutability": "view",
      "type": "function"
    },
    {
      "inputs": [
        {
          "internalType": "bytes4",
          "name": "_commentId",
          "type": "bytes4"
        }
      ],
      "name": "getCommentInfo",
      "outputs": [
        {
          "internalType": "address",
          "name": "user",
          "type": "address"
        },
        {
          "internalType": "bytes4",
          "name": "postId",
          "type": "bytes4"
        },
        {
          "internalType": "bytes4",
          "name": "commentId",
          "type": "bytes4"
        },
        {
          "internalType": "string",
          "name": "comment",
          "type": "string"
        },
        {
          "internalType": "uint256",
          "name": "commentTotalLike",
          "type": "uint256"
        },
        {
          "internalType": "uint256",
          "name": "commentTime",
          "type": "uint256"
        }
      ],
      "stateMutability": "view",
      "type": "function"
    },
    {
      "inputs": [
        {
          "internalType": "bytes4",
          "name": "_commentId",
          "type": "bytes4"
        }
      ],
      "name": "getCommentLikedByUser",
      "outputs": [
        {
          "internalType": "bool",
          "name": "isLikeComment",
          "type": "bool"
        }
      ],
      "stateMutability": "view",
      "type": "function"
    },
    {
      "inputs": [
        {
          "internalType": "bytes4",
          "name": "_postId",
          "type": "bytes4"
        }
      ],
      "name": "getComments",
      "outputs": [
        {
          "internalType": "bytes4[]",
          "name": "",
          "type": "bytes4[]"
        }
      ],
      "stateMutability": "view",
      "type": "function"
    },
    {
      "inputs": [
        {
          "internalType": "bytes4",
          "name": "_postId",
          "type": "bytes4"
        }
      ],
      "name": "getPostDetails",
      "outputs": [
        {
          "internalType": "address",
          "name": "userAddress",
          "type": "address"
        },
        {
          "internalType": "bytes4",
          "name": "postId",
          "type": "bytes4"
        },
        {
          "internalType": "string",
          "name": "content",
          "type": "string"
        },
        {
          "internalType": "uint256",
          "name": "likes",
          "type": "uint256"
        },
        {
          "internalType": "uint256",
          "name": "postTime",
          "type": "uint256"
        },
        {
          "internalType": "uint256",
          "name": "lastUpdated",
          "type": "uint256"
        }
      ],
      "stateMutability": "view",
      "type": "function"
    },
    {
      "inputs": [
        {
          "internalType": "bytes4",
          "name": "_postId",
          "type": "bytes4"
        }
      ],
      "name": "getPostLikedByUser",
      "outputs": [
        {
          "internalType": "bool",
          "name": "islike",
          "type": "bool"
        }
      ],
      "stateMutability": "view",
      "type": "function"
    },
    {
      "inputs": [
        {
          "internalType": "bytes4",
          "name": "_commentId",
          "type": "bytes4"
        }
      ],
      "name": "getReplyOnComment",
      "outputs": [
        {
          "internalType": "bytes4[]",
          "name": "",
          "type": "bytes4[]"
        }
      ],
      "stateMutability": "view",
      "type": "function"
    },
    {
      "inputs": [
        {
          "internalType": "bool",
          "name": "likeNComment",
          "type": "bool"
        }
      ],
      "name": "getUserLikePosts",
      "outputs": [
        {
          "internalType": "bytes4[]",
          "name": "",
          "type": "bytes4[]"
        }
      ],
      "stateMutability": "view",
      "type": "function"
    },
    {
      "inputs": [
        {
          "internalType": "address",
          "name": "user",
          "type": "address"
        }
      ],
      "name": "getUserPosts",
      "outputs": [
        {
          "internalType": "bytes4[]",
          "name": "",
          "type": "bytes4[]"
        }
      ],
      "stateMutability": "view",
      "type": "function"
    },
    {
      "inputs": [],
      "name": "getUserReplies",
      "outputs": [
        {
          "internalType": "bytes4[]",
          "name": "",
          "type": "bytes4[]"
        }
      ],
      "stateMutability": "view",
      "type": "function"
    },
    {
      "inputs": [
        {
          "internalType": "bytes4",
          "name": "_postId",
          "type": "bytes4"
        }
      ],
      "name": "likePost",
      "outputs": [],
      "stateMutability": "nonpayable",
      "type": "function"
    },
    {
      "inputs": [
        {
          "internalType": "bytes4",
          "name": "_postId",
          "type": "bytes4"
        },
        {
          "internalType": "string",
          "name": "_content",
          "type": "string"
        }
      ],
      "name": "updatePost",
      "outputs": [],
      "stateMutability": "nonpayable",
      "type": "function"
    }
  ],
  "bytecode": "0x60806040523480156200001157600080fd5b5060405162006119380380620061198339818101604052810190620000379190620000e8565b806000806101000a81548173ffffffffffffffffffffffffffffffffffffffff021916908373ffffffffffffffffffffffffffffffffffffffff160217905550506200011a565b600080fd5b600073ffffffffffffffffffffffffffffffffffffffff82169050919050565b6000620000b08262000083565b9050919050565b620000c281620000a3565b8114620000ce57600080fd5b50565b600081519050620000e281620000b7565b92915050565b6000602082840312156200010157620001006200007e565b5b60006200011184828501620000d1565b91505092915050565b615fef806200012a6000396000f3fe608060405234801561001057600080fd5b50600436106101215760003560e01c80635f51fd68116100ad578063c7303c6111610071578063c7303c6114610341578063c804c4191461035d578063d76af1011461037b578063f771e0c514610397578063fc832d81146103cc57610121565b80635f51fd68146102795780636473177f146102955780636c61f52f146102b15780637f0b2791146102e15780639a2194a91461031157610121565b806330561100116100f457806330561100146101af57806330794dbd146101cd57806331c08e4f146101fd5780633d0b4a281461022d5780634c7e805d1461025d57610121565b8063041f209f146101265780630e6e0a2d1461015b5780631972780914610177578063210e7b0914610193575b600080fd5b610140600480360381019061013b919061528c565b6103e8565b604051610152969594939291906153b2565b60405180910390f35b6101756004803603810190610170919061528c565b610705565b005b610191600480360381019061018c919061528c565b610b39565b005b6101ad60048036038101906101a8919061528c565b61119e565b005b6101b7611c5a565b6040516101c491906154d8565b60405180910390f35b6101e760048036038101906101e2919061528c565b611cf4565b6040516101f491906154d8565b60405180910390f35b6102176004803603810190610212919061528c565b611eb8565b6040516102249190615515565b60405180910390f35b6102476004803603810190610242919061528c565b612037565b60405161025491906154d8565b60405180910390f35b61027760048036038101906102729190615665565b61242c565b005b610293600480360381019061028e9190615665565b6129db565b005b6102af60048036038101906102aa9190615665565b612e08565b005b6102cb60048036038101906102c691906156ed565b6133ff565b6040516102d891906154d8565b60405180910390f35b6102fb60048036038101906102f6919061528c565b6135fb565b6040516103089190615515565b60405180910390f35b61032b60048036038101906103269190615746565b61377a565b60405161033891906154d8565b60405180910390f35b61035b60048036038101906103569190615773565b61392c565b005b610365613d66565b60405161037291906154d8565b60405180910390f35b6103956004803603810190610390919061528c565b613f16565b005b6103b160048036038101906103ac919061528c565b6144d2565b6040516103c3969594939291906157bc565b60405180910390f35b6103e660048036038101906103e1919061528c565b6149d6565b005b6000806000606060008060008054906101000a900473ffffffffffffffffffffffffffffffffffffffff1673ffffffffffffffffffffffffffffffffffffffff166325442f7b336040518263ffffffff1660e01b815260040161044b9190615824565b602060405180830381865afa158015610468573d6000803e3d6000fd5b505050506040513d601f19601f8201168201806040525081019061048c9190615854565b6104cb576040517f08c379a00000000000000000000000000000000000000000000000000000000081526004016104c2906158cd565b60405180910390fd5b600060066000897bffffffffffffffffffffffffffffffffffffffffffffffffffffffff19167bffffffffffffffffffffffffffffffffffffffffffffffffffffffff191681526020019081526020016000206040518060c00160405290816000820160009054906101000a900473ffffffffffffffffffffffffffffffffffffffff1673ffffffffffffffffffffffffffffffffffffffff1673ffffffffffffffffffffffffffffffffffffffff1681526020016000820160149054906101000a900460e01b7bffffffffffffffffffffffffffffffffffffffffffffffffffffffff19167bffffffffffffffffffffffffffffffffffffffffffffffffffffffff191681526020016000820160189054906101000a900460e01b7bffffffffffffffffffffffffffffffffffffffffffffffffffffffff19167bffffffffffffffffffffffffffffffffffffffffffffffffffffffff191681526020016001820180546106399061591c565b80601f01602080910402602001604051908101604052809291908181526020018280546106659061591c565b80156106b25780601f10610687576101008083540402835291602001916106b2565b820191906000526020600020905b81548152906001019060200180831161069557829003601f168201915b50505050508152602001600282015481526020016003820154815250509050806000015181602001518260400151836060015184608001518560a001519650965096509650965096505091939550919395565b60008054906101000a900473ffffffffffffffffffffffffffffffffffffffff1673ffffffffffffffffffffffffffffffffffffffff166325442f7b336040518263ffffffff1660e01b815260040161075e9190615824565b602060405180830381865afa15801561077b573d6000803e3d6000fd5b505050506040513d601f19601f8201168201806040525081019061079f9190615854565b6107de576040517f08c379a00000000000000000000000000000000000000000000000000000000081526004016107d5906158cd565b60405180910390fd5b600960003373ffffffffffffffffffffffffffffffffffffffff1673ffffffffffffffffffffffffffffffffffffffff1681526020019081526020016000206000827bffffffffffffffffffffffffffffffffffffffffffffffffffffffff19167bffffffffffffffffffffffffffffffffffffffffffffffffffffffff1916815260200190815260200160002060009054906101000a900460ff16156108ba576040517f08c379a00000000000000000000000000000000000000000000000000000000081526004016108b190615999565b60405180910390fd5b6001600960003373ffffffffffffffffffffffffffffffffffffffff1673ffffffffffffffffffffffffffffffffffffffff1681526020019081526020016000206000837bffffffffffffffffffffffffffffffffffffffffffffffffffffffff19167bffffffffffffffffffffffffffffffffffffffffffffffffffffffff1916815260200190815260200160002060006101000a81548160ff021916908315150217905550600060066000837bffffffffffffffffffffffffffffffffffffffffffffffffffffffff19167bffffffffffffffffffffffffffffffffffffffffffffffffffffffff19168152602001908152602001600020905060018160020160008282546109cb91906159e8565b925050819055506000600860003373ffffffffffffffffffffffffffffffffffffffff1673ffffffffffffffffffffffffffffffffffffffff168152602001908152602001600020805490509050600860003373ffffffffffffffffffffffffffffffffffffffff1673ffffffffffffffffffffffffffffffffffffffff1681526020019081526020016000208390806001815401808255809150506001900390600052602060002090600891828204019190066004029091909190916101000a81548163ffffffff021916908360e01c021790555080600d60003373ffffffffffffffffffffffffffffffffffffffff1673ffffffffffffffffffffffffffffffffffffffff1681526020019081526020016000206000857bffffffffffffffffffffffffffffffffffffffffffffffffffffffff19167bffffffffffffffffffffffffffffffffffffffffffffffffffffffff1916815260200190815260200160002081905550505050565b60008054906101000a900473ffffffffffffffffffffffffffffffffffffffff1673ffffffffffffffffffffffffffffffffffffffff166325442f7b336040518263ffffffff1660e01b8152600401610b929190615824565b602060405180830381865afa158015610baf573d6000803e3d6000fd5b505050506040513d601f19601f82011682018060405250810190610bd39190615854565b610c12576040517f08c379a0000000000000000000000000000000000000000000000000000000008152600401610c09906158cd565b60405180910390fd5b80600060036000837bffffffffffffffffffffffffffffffffffffffffffffffffffffffff19167bffffffffffffffffffffffffffffffffffffffffffffffffffffffff191681526020019081526020016000206040518060c00160405290816000820160009054906101000a900473ffffffffffffffffffffffffffffffffffffffff1673ffffffffffffffffffffffffffffffffffffffff1673ffffffffffffffffffffffffffffffffffffffff1681526020016000820160149054906101000a900460e01b7bffffffffffffffffffffffffffffffffffffffffffffffffffffffff19167bffffffffffffffffffffffffffffffffffffffffffffffffffffffff19168152602001600182018054610d2c9061591c565b80601f0160208091040260200160405190810160405280929190818152602001828054610d589061591c565b8015610da55780601f10610d7a57610100808354040283529160200191610da5565b820191906000526020600020905b815481529060010190602001808311610d8857829003601f168201915b5050505050815260200160028201548152602001600382015481526020016004820154815250509050600073ffffffffffffffffffffffffffffffffffffffff16816000015173ffffffffffffffffffffffffffffffffffffffff1603610e41576040517f08c379a0000000000000000000000000000000000000000000000000000000008152600401610e3890615a68565b60405180910390fd5b600560003373ffffffffffffffffffffffffffffffffffffffff1673ffffffffffffffffffffffffffffffffffffffff1681526020019081526020016000206000847bffffffffffffffffffffffffffffffffffffffffffffffffffffffff19167bffffffffffffffffffffffffffffffffffffffffffffffffffffffff1916815260200190815260200160002060009054906101000a900460ff1615610f1d576040517f08c379a0000000000000000000000000000000000000000000000000000000008152600401610f1490615999565b60405180910390fd5b6001600560003373ffffffffffffffffffffffffffffffffffffffff1673ffffffffffffffffffffffffffffffffffffffff1681526020019081526020016000206000857bffffffffffffffffffffffffffffffffffffffffffffffffffffffff19167bffffffffffffffffffffffffffffffffffffffffffffffffffffffff1916815260200190815260200160002060006101000a81548160ff021916908315150217905550600060036000857bffffffffffffffffffffffffffffffffffffffffffffffffffffffff19167bffffffffffffffffffffffffffffffffffffffffffffffffffffffff191681526020019081526020016000209050600181600201600082825461102e91906159e8565b925050819055506000600460003373ffffffffffffffffffffffffffffffffffffffff1673ffffffffffffffffffffffffffffffffffffffff168152602001908152602001600020805490509050600460003373ffffffffffffffffffffffffffffffffffffffff1673ffffffffffffffffffffffffffffffffffffffff1681526020019081526020016000208590806001815401808255809150506001900390600052602060002090600891828204019190066004029091909190916101000a81548163ffffffff021916908360e01c021790555080600c60003373ffffffffffffffffffffffffffffffffffffffff1673ffffffffffffffffffffffffffffffffffffffff1681526020019081526020016000206000877bffffffffffffffffffffffffffffffffffffffffffffffffffffffff19167bffffffffffffffffffffffffffffffffffffffffffffffffffffffff19168152602001908152602001600020819055505050505050565b60008054906101000a900473ffffffffffffffffffffffffffffffffffffffff1673ffffffffffffffffffffffffffffffffffffffff166325442f7b336040518263ffffffff1660e01b81526004016111f79190615824565b602060405180830381865afa158015611214573d6000803e3d6000fd5b505050506040513d601f19601f820116820180604052508101906112389190615854565b611277576040517f08c379a000000000000000000000000000000000000000000000000000000000815260040161126e906158cd565b60405180910390fd5b80600060036000837bffffffffffffffffffffffffffffffffffffffffffffffffffffffff19167bffffffffffffffffffffffffffffffffffffffffffffffffffffffff191681526020019081526020016000206040518060c00160405290816000820160009054906101000a900473ffffffffffffffffffffffffffffffffffffffff1673ffffffffffffffffffffffffffffffffffffffff1673ffffffffffffffffffffffffffffffffffffffff1681526020016000820160149054906101000a900460e01b7bffffffffffffffffffffffffffffffffffffffffffffffffffffffff19167bffffffffffffffffffffffffffffffffffffffffffffffffffffffff191681526020016001820180546113919061591c565b80601f01602080910402602001604051908101604052809291908181526020018280546113bd9061591c565b801561140a5780601f106113df5761010080835404028352916020019161140a565b820191906000526020600020905b8154815290600101906020018083116113ed57829003601f168201915b5050505050815260200160028201548152602001600382015481526020016004820154815250509050600073ffffffffffffffffffffffffffffffffffffffff16816000015173ffffffffffffffffffffffffffffffffffffffff16036114a6576040517f08c379a000000000000000000000000000000000000000000000000000000000815260040161149d90615a68565b60405180910390fd5b82600060036000837bffffffffffffffffffffffffffffffffffffffffffffffffffffffff19167bffffffffffffffffffffffffffffffffffffffffffffffffffffffff191681526020019081526020016000206040518060c00160405290816000820160009054906101000a900473ffffffffffffffffffffffffffffffffffffffff1673ffffffffffffffffffffffffffffffffffffffff1673ffffffffffffffffffffffffffffffffffffffff1681526020016000820160149054906101000a900460e01b7bffffffffffffffffffffffffffffffffffffffffffffffffffffffff19167bffffffffffffffffffffffffffffffffffffffffffffffffffffffff191681526020016001820180546115c09061591c565b80601f01602080910402602001604051908101604052809291908181526020018280546115ec9061591c565b80156116395780601f1061160e57610100808354040283529160200191611639565b820191906000526020600020905b81548152906001019060200180831161161c57829003601f168201915b50505050508152602001600282015481526020016003820154815260200160048201548152505090503373ffffffffffffffffffffffffffffffffffffffff16816000015173ffffffffffffffffffffffffffffffffffffffff16146116d4576040517f08c379a00000000000000000000000000000000000000000000000000000000081526004016116cb90615ad4565b60405180910390fd5b600560003373ffffffffffffffffffffffffffffffffffffffff1673ffffffffffffffffffffffffffffffffffffffff1681526020019081526020016000206000867bffffffffffffffffffffffffffffffffffffffffffffffffffffffff19167bffffffffffffffffffffffffffffffffffffffffffffffffffffffff1916815260200190815260200160002060009054906101000a900460ff161561177f5761177e856149d6565b5b6000600a6000877bffffffffffffffffffffffffffffffffffffffffffffffffffffffff19167bffffffffffffffffffffffffffffffffffffffffffffffffffffffff19168152602001908152602001600020549050600180805490506117e69190615af4565b81146118d357600060018080805490506118009190615af4565b8154811061181157611810615b28565b5b90600052602060002090600891828204019190066004029054906101000a900460e01b9050806001838154811061184b5761184a615b28565b5b90600052602060002090600891828204019190066004026101000a81548163ffffffff021916908360e01c021790555081600a6000837bffffffffffffffffffffffffffffffffffffffffffffffffffffffff19167bffffffffffffffffffffffffffffffffffffffffffffffffffffffff1916815260200190815260200160002081905550505b60018054806118e5576118e4615b57565b5b60019003818190600052602060002090600891828204019190066004026101000a81549063ffffffff021916905590556000600260003373ffffffffffffffffffffffffffffffffffffffff1673ffffffffffffffffffffffffffffffffffffffff16815260200190815260200160002090506000600b6000897bffffffffffffffffffffffffffffffffffffffffffffffffffffffff19167bffffffffffffffffffffffffffffffffffffffffffffffffffffffff19168152602001908152602001600020549050600182805490506119bf9190615af4565b8114611aab57600082600184805490506119d99190615af4565b815481106119ea576119e9615b28565b5b90600052602060002090600891828204019190066004029054906101000a900460e01b905080838381548110611a2357611a22615b28565b5b90600052602060002090600891828204019190066004026101000a81548163ffffffff021916908360e01c021790555081600b6000837bffffffffffffffffffffffffffffffffffffffffffffffffffffffff19167bffffffffffffffffffffffffffffffffffffffffffffffffffffffff1916815260200190815260200160002081905550505b81805480611abc57611abb615b57565b5b60019003818190600052602060002090600891828204019190066004026101000a81549063ffffffff02191690559055600a6000897bffffffffffffffffffffffffffffffffffffffffffffffffffffffff19167bffffffffffffffffffffffffffffffffffffffffffffffffffffffff1916815260200190815260200160002060009055600b6000897bffffffffffffffffffffffffffffffffffffffffffffffffffffffff19167bffffffffffffffffffffffffffffffffffffffffffffffffffffffff191681526020019081526020016000206000905560036000897bffffffffffffffffffffffffffffffffffffffffffffffffffffffff19167bffffffffffffffffffffffffffffffffffffffffffffffffffffffff19168152602001908152602001600020600080820160006101000a81549073ffffffffffffffffffffffffffffffffffffffff02191690556000820160146101000a81549063ffffffff0219169055600182016000611c3691906151c3565b60028201600090556003820160009055600482016000905550505050505050505050565b60606001805480602002602001604051908101604052809291908181526020018280548015611cea57602002820191906000526020600020906000905b82829054906101000a900460e01b7bffffffffffffffffffffffffffffffffffffffffffffffffffffffff191681526020019060040190602082600301049283019260010382029150808411611c975790505b5050505050905090565b606060008054906101000a900473ffffffffffffffffffffffffffffffffffffffff1673ffffffffffffffffffffffffffffffffffffffff166325442f7b336040518263ffffffff1660e01b8152600401611d4f9190615824565b602060405180830381865afa158015611d6c573d6000803e3d6000fd5b505050506040513d601f19601f82011682018060405250810190611d909190615854565b611dcf576040517f08c379a0000000000000000000000000000000000000000000000000000000008152600401611dc6906158cd565b60405180910390fd5b60076000837bffffffffffffffffffffffffffffffffffffffffffffffffffffffff19167bffffffffffffffffffffffffffffffffffffffffffffffffffffffff19168152602001908152602001600020805480602002602001604051908101604052809291908181526020018280548015611eac57602002820191906000526020600020906000905b82829054906101000a900460e01b7bffffffffffffffffffffffffffffffffffffffffffffffffffffffff191681526020019060040190602082600301049283019260010382029150808411611e595790505b50505050509050919050565b60008060009054906101000a900473ffffffffffffffffffffffffffffffffffffffff1673ffffffffffffffffffffffffffffffffffffffff166325442f7b336040518263ffffffff1660e01b8152600401611f149190615824565b602060405180830381865afa158015611f31573d6000803e3d6000fd5b505050506040513d601f19601f82011682018060405250810190611f559190615854565b611f94576040517f08c379a0000000000000000000000000000000000000000000000000000000008152600401611f8b906158cd565b60405180910390fd5b600960003373ffffffffffffffffffffffffffffffffffffffff1673ffffffffffffffffffffffffffffffffffffffff1681526020019081526020016000206000837bffffffffffffffffffffffffffffffffffffffffffffffffffffffff19167bffffffffffffffffffffffffffffffffffffffffffffffffffffffff1916815260200190815260200160002060009054906101000a900460ff169050919050565b606060008054906101000a900473ffffffffffffffffffffffffffffffffffffffff1673ffffffffffffffffffffffffffffffffffffffff166325442f7b336040518263ffffffff1660e01b81526004016120929190615824565b602060405180830381865afa1580156120af573d6000803e3d6000fd5b505050506040513d601f19601f820116820180604052508101906120d39190615854565b612112576040517f08c379a0000000000000000000000000000000000000000000000000000000008152600401612109906158cd565b60405180910390fd5b81600060036000837bffffffffffffffffffffffffffffffffffffffffffffffffffffffff19167bffffffffffffffffffffffffffffffffffffffffffffffffffffffff191681526020019081526020016000206040518060c00160405290816000820160009054906101000a900473ffffffffffffffffffffffffffffffffffffffff1673ffffffffffffffffffffffffffffffffffffffff1673ffffffffffffffffffffffffffffffffffffffff1681526020016000820160149054906101000a900460e01b7bffffffffffffffffffffffffffffffffffffffffffffffffffffffff19167bffffffffffffffffffffffffffffffffffffffffffffffffffffffff1916815260200160018201805461222c9061591c565b80601f01602080910402602001604051908101604052809291908181526020018280546122589061591c565b80156122a55780601f1061227a576101008083540402835291602001916122a5565b820191906000526020600020905b81548152906001019060200180831161228857829003601f168201915b5050505050815260200160028201548152602001600382015481526020016004820154815250509050600073ffffffffffffffffffffffffffffffffffffffff16816000015173ffffffffffffffffffffffffffffffffffffffff1603612341576040517f08c379a000000000000000000000000000000000000000000000000000000000815260040161233890615a68565b60405180910390fd5b60076000857bffffffffffffffffffffffffffffffffffffffffffffffffffffffff19167bffffffffffffffffffffffffffffffffffffffffffffffffffffffff1916815260200190815260200160002080548060200260200160405190810160405280929190818152602001828054801561241e57602002820191906000526020600020906000905b82829054906101000a900460e01b7bffffffffffffffffffffffffffffffffffffffffffffffffffffffff1916815260200190600401906020826003010492830192600103820291508084116123cb5790505b505050505092505050919050565b60008054906101000a900473ffffffffffffffffffffffffffffffffffffffff1673ffffffffffffffffffffffffffffffffffffffff166325442f7b336040518263ffffffff1660e01b81526004016124859190615824565b602060405180830381865afa1580156124a2573d6000803e3d6000fd5b505050506040513d601f19601f820116820180604052508101906124c69190615854565b612505576040517f08c379a00000000000000000000000000000000000000000000000000000000081526004016124fc906158cd565b60405180910390fd5b81600060036000837bffffffffffffffffffffffffffffffffffffffffffffffffffffffff19167bffffffffffffffffffffffffffffffffffffffffffffffffffffffff191681526020019081526020016000206040518060c00160405290816000820160009054906101000a900473ffffffffffffffffffffffffffffffffffffffff1673ffffffffffffffffffffffffffffffffffffffff1673ffffffffffffffffffffffffffffffffffffffff1681526020016000820160149054906101000a900460e01b7bffffffffffffffffffffffffffffffffffffffffffffffffffffffff19167bffffffffffffffffffffffffffffffffffffffffffffffffffffffff1916815260200160018201805461261f9061591c565b80601f016020809104026020016040519081016040528092919081815260200182805461264b9061591c565b80156126985780601f1061266d57610100808354040283529160200191612698565b820191906000526020600020905b81548152906001019060200180831161267b57829003601f168201915b5050505050815260200160028201548152602001600382015481526020016004820154815250509050600073ffffffffffffffffffffffffffffffffffffffff16816000015173ffffffffffffffffffffffffffffffffffffffff1603612734576040517f08c379a000000000000000000000000000000000000000000000000000000000815260040161272b90615a68565b60405180910390fd5b83600060036000837bffffffffffffffffffffffffffffffffffffffffffffffffffffffff19167bffffffffffffffffffffffffffffffffffffffffffffffffffffffff191681526020019081526020016000206040518060c00160405290816000820160009054906101000a900473ffffffffffffffffffffffffffffffffffffffff1673ffffffffffffffffffffffffffffffffffffffff1673ffffffffffffffffffffffffffffffffffffffff1681526020016000820160149054906101000a900460e01b7bffffffffffffffffffffffffffffffffffffffffffffffffffffffff19167bffffffffffffffffffffffffffffffffffffffffffffffffffffffff1916815260200160018201805461284e9061591c565b80601f016020809104026020016040519081016040528092919081815260200182805461287a9061591c565b80156128c75780601f1061289c576101008083540402835291602001916128c7565b820191906000526020600020905b8154815290600101906020018083116128aa57829003601f168201915b50505050508152602001600282015481526020016003820154815260200160048201548152505090503373ffffffffffffffffffffffffffffffffffffffff16816000015173ffffffffffffffffffffffffffffffffffffffff1614612962576040517f08c379a000000000000000000000000000000000000000000000000000000000815260040161295990615ad4565b60405180910390fd5b600060036000887bffffffffffffffffffffffffffffffffffffffffffffffffffffffff19167bffffffffffffffffffffffffffffffffffffffffffffffffffffffff191681526020019081526020016000209050858160010190816129c89190615d32565b5042816004018190555050505050505050565b60008054906101000a900473ffffffffffffffffffffffffffffffffffffffff1673ffffffffffffffffffffffffffffffffffffffff166325442f7b336040518263ffffffff1660e01b8152600401612a349190615824565b602060405180830381865afa158015612a51573d6000803e3d6000fd5b505050506040513d601f19601f82011682018060405250810190612a759190615854565b612ab4576040517f08c379a0000000000000000000000000000000000000000000000000000000008152600401612aab906158cd565b60405180910390fd5b600060066000847bffffffffffffffffffffffffffffffffffffffffffffffffffffffff19167bffffffffffffffffffffffffffffffffffffffffffffffffffffffff1916815260200190815260200160002060000160149054906101000a900460e01b9050600033828442604051602001612b339493929190615eca565b60405160208183030381529060405280519060200120905060006040518060c001604052803373ffffffffffffffffffffffffffffffffffffffff168152602001867bffffffffffffffffffffffffffffffffffffffffffffffffffffffff19168152602001837bffffffffffffffffffffffffffffffffffffffffffffffffffffffff19168152602001858152602001600081526020014281525090508060066000847bffffffffffffffffffffffffffffffffffffffffffffffffffffffff19167bffffffffffffffffffffffffffffffffffffffffffffffffffffffff1916815260200190815260200160002060008201518160000160006101000a81548173ffffffffffffffffffffffffffffffffffffffff021916908373ffffffffffffffffffffffffffffffffffffffff16021790555060208201518160000160146101000a81548163ffffffff021916908360e01c021790555060408201518160000160186101000a81548163ffffffff021916908360e01c02179055506060820151816001019081612cc79190615d32565b506080820151816002015560a0820151816003015590505060076000867bffffffffffffffffffffffffffffffffffffffffffffffffffffffff19167bffffffffffffffffffffffffffffffffffffffffffffffffffffffff191681526020019081526020016000208290806001815401808255809150506001900390600052602060002090600891828204019190066004029091909190916101000a81548163ffffffff021916908360e01c0217905550600e60003373ffffffffffffffffffffffffffffffffffffffff1673ffffffffffffffffffffffffffffffffffffffff1681526020019081526020016000208290806001815401808255809150506001900390600052602060002090600891828204019190066004029091909190916101000a81548163ffffffff021916908360e01c02179055505050505050565b60008054906101000a900473ffffffffffffffffffffffffffffffffffffffff1673ffffffffffffffffffffffffffffffffffffffff166325442f7b336040518263ffffffff1660e01b8152600401612e619190615824565b602060405180830381865afa158015612e7e573d6000803e3d6000fd5b505050506040513d601f19601f82011682018060405250810190612ea29190615854565b612ee1576040517f08c379a0000000000000000000000000000000000000000000000000000000008152600401612ed8906158cd565b60405180910390fd5b81600060036000837bffffffffffffffffffffffffffffffffffffffffffffffffffffffff19167bffffffffffffffffffffffffffffffffffffffffffffffffffffffff191681526020019081526020016000206040518060c00160405290816000820160009054906101000a900473ffffffffffffffffffffffffffffffffffffffff1673ffffffffffffffffffffffffffffffffffffffff1673ffffffffffffffffffffffffffffffffffffffff1681526020016000820160149054906101000a900460e01b7bffffffffffffffffffffffffffffffffffffffffffffffffffffffff19167bffffffffffffffffffffffffffffffffffffffffffffffffffffffff19168152602001600182018054612ffb9061591c565b80601f01602080910402602001604051908101604052809291908181526020018280546130279061591c565b80156130745780601f1061304957610100808354040283529160200191613074565b820191906000526020600020905b81548152906001019060200180831161305757829003601f168201915b5050505050815260200160028201548152602001600382015481526020016004820154815250509050600073ffffffffffffffffffffffffffffffffffffffff16816000015173ffffffffffffffffffffffffffffffffffffffff1603613110576040517f08c379a000000000000000000000000000000000000000000000000000000000815260040161310790615a68565b60405180910390fd5b6000338585426040516020016131299493929190615eca565b60405160208183030381529060405280519060200120905060006040518060c001604052803373ffffffffffffffffffffffffffffffffffffffff168152602001877bffffffffffffffffffffffffffffffffffffffffffffffffffffffff19168152602001837bffffffffffffffffffffffffffffffffffffffffffffffffffffffff191681526020018681526020016000815260200142815250905060076000877bffffffffffffffffffffffffffffffffffffffffffffffffffffffff19167bffffffffffffffffffffffffffffffffffffffffffffffffffffffff191681526020019081526020016000208290806001815401808255809150506001900390600052602060002090600891828204019190066004029091909190916101000a81548163ffffffff021916908360e01c02179055508060066000847bffffffffffffffffffffffffffffffffffffffffffffffffffffffff19167bffffffffffffffffffffffffffffffffffffffffffffffffffffffff1916815260200190815260200160002060008201518160000160006101000a81548173ffffffffffffffffffffffffffffffffffffffff021916908373ffffffffffffffffffffffffffffffffffffffff16021790555060208201518160000160146101000a81548163ffffffff021916908360e01c021790555060408201518160000160186101000a81548163ffffffff021916908360e01c021790555060608201518160010190816133579190615d32565b506080820151816002015560a08201518160030155905050600e60003373ffffffffffffffffffffffffffffffffffffffff1673ffffffffffffffffffffffffffffffffffffffff1681526020019081526020016000208290806001815401808255809150506001900390600052602060002090600891828204019190066004029091909190916101000a81548163ffffffff021916908360e01c0217905550505050505050565b606060008054906101000a900473ffffffffffffffffffffffffffffffffffffffff1673ffffffffffffffffffffffffffffffffffffffff166325442f7b336040518263ffffffff1660e01b815260040161345a9190615824565b602060405180830381865afa158015613477573d6000803e3d6000fd5b505050506040513d601f19601f8201168201806040525081019061349b9190615854565b6134da576040517f08c379a00000000000000000000000000000000000000000000000000000000081526004016134d1906158cd565b60405180910390fd5b8161352357600860003373ffffffffffffffffffffffffffffffffffffffff1673ffffffffffffffffffffffffffffffffffffffff168152602001908152602001600020613563565b600460003373ffffffffffffffffffffffffffffffffffffffff1673ffffffffffffffffffffffffffffffffffffffff1681526020019081526020016000205b8054806020026020016040519081016040528092919081815260200182805480156135ef57602002820191906000526020600020906000905b82829054906101000a900460e01b7bffffffffffffffffffffffffffffffffffffffffffffffffffffffff19168152602001906004019060208260030104928301926001038202915080841161359c5790505b50505050509050919050565b60008060009054906101000a900473ffffffffffffffffffffffffffffffffffffffff1673ffffffffffffffffffffffffffffffffffffffff166325442f7b336040518263ffffffff1660e01b81526004016136579190615824565b602060405180830381865afa158015613674573d6000803e3d6000fd5b505050506040513d601f19601f820116820180604052508101906136989190615854565b6136d7576040517f08c379a00000000000000000000000000000000000000000000000000000000081526004016136ce906158cd565b60405180910390fd5b600560003373ffffffffffffffffffffffffffffffffffffffff1673ffffffffffffffffffffffffffffffffffffffff1681526020019081526020016000206000837bffffffffffffffffffffffffffffffffffffffffffffffffffffffff19167bffffffffffffffffffffffffffffffffffffffffffffffffffffffff1916815260200190815260200160002060009054906101000a900460ff169050919050565b606060008054906101000a900473ffffffffffffffffffffffffffffffffffffffff1673ffffffffffffffffffffffffffffffffffffffff166325442f7b336040518263ffffffff1660e01b81526004016137d59190615824565b602060405180830381865afa1580156137f2573d6000803e3d6000fd5b505050506040513d601f19601f820116820180604052508101906138169190615854565b613855576040517f08c379a000000000000000000000000000000000000000000000000000000000815260040161384c906158cd565b60405180910390fd5b600260008373ffffffffffffffffffffffffffffffffffffffff1673ffffffffffffffffffffffffffffffffffffffff16815260200190815260200160002080548060200260200160405190810160405280929190818152602001828054801561392057602002820191906000526020600020906000905b82829054906101000a900460e01b7bffffffffffffffffffffffffffffffffffffffffffffffffffffffff1916815260200190600401906020826003010492830192600103820291508084116138cd5790505b50505050509050919050565b60008054906101000a900473ffffffffffffffffffffffffffffffffffffffff1673ffffffffffffffffffffffffffffffffffffffff166325442f7b336040518263ffffffff1660e01b81526004016139859190615824565b602060405180830381865afa1580156139a2573d6000803e3d6000fd5b505050506040513d601f19601f820116820180604052508101906139c69190615854565b613a05576040517f08c379a00000000000000000000000000000000000000000000000000000000081526004016139fc906158cd565b60405180910390fd5b6000338242604051602001613a1c93929190615f14565b60405160208183030381529060405280519060200120905060006040518060c001604052803373ffffffffffffffffffffffffffffffffffffffff168152602001837bffffffffffffffffffffffffffffffffffffffffffffffffffffffff1916815260200184815260200160008152602001428152602001428152509050600060018054905090506000600260003373ffffffffffffffffffffffffffffffffffffffff1673ffffffffffffffffffffffffffffffffffffffff16815260200190815260200160002080549050905060018490806001815401808255809150506001900390600052602060002090600891828204019190066004029091909190916101000a81548163ffffffff021916908360e01c0217905550600260003373ffffffffffffffffffffffffffffffffffffffff1673ffffffffffffffffffffffffffffffffffffffff1681526020019081526020016000208490806001815401808255809150506001900390600052602060002090600891828204019190066004029091909190916101000a81548163ffffffff021916908360e01c021790555081600a6000867bffffffffffffffffffffffffffffffffffffffffffffffffffffffff19167bffffffffffffffffffffffffffffffffffffffffffffffffffffffff191681526020019081526020016000208190555080600b6000867bffffffffffffffffffffffffffffffffffffffffffffffffffffffff19167bffffffffffffffffffffffffffffffffffffffffffffffffffffffff19168152602001908152602001600020819055508260036000867bffffffffffffffffffffffffffffffffffffffffffffffffffffffff19167bffffffffffffffffffffffffffffffffffffffffffffffffffffffff1916815260200190815260200160002060008201518160000160006101000a81548173ffffffffffffffffffffffffffffffffffffffff021916908373ffffffffffffffffffffffffffffffffffffffff16021790555060208201518160000160146101000a81548163ffffffff021916908360e01c02179055506040820151816001019081613d3d9190615d32565b50606082015181600201556080820151816003015560a082015181600401559050505050505050565b606060008054906101000a900473ffffffffffffffffffffffffffffffffffffffff1673ffffffffffffffffffffffffffffffffffffffff166325442f7b336040518263ffffffff1660e01b8152600401613dc19190615824565b602060405180830381865afa158015613dde573d6000803e3d6000fd5b505050506040513d601f19601f82011682018060405250810190613e029190615854565b613e41576040517f08c379a0000000000000000000000000000000000000000000000000000000008152600401613e38906158cd565b60405180910390fd5b600e60003373ffffffffffffffffffffffffffffffffffffffff1673ffffffffffffffffffffffffffffffffffffffff168152602001908152602001600020805480602002602001604051908101604052809291908181526020018280548015613f0c57602002820191906000526020600020906000905b82829054906101000a900460e01b7bffffffffffffffffffffffffffffffffffffffffffffffffffffffff191681526020019060040190602082600301049283019260010382029150808411613eb95790505b5050505050905090565b60008054906101000a900473ffffffffffffffffffffffffffffffffffffffff1673ffffffffffffffffffffffffffffffffffffffff166325442f7b336040518263ffffffff1660e01b8152600401613f6f9190615824565b602060405180830381865afa158015613f8c573d6000803e3d6000fd5b505050506040513d601f19601f82011682018060405250810190613fb09190615854565b613fef576040517f08c379a0000000000000000000000000000000000000000000000000000000008152600401613fe6906158cd565b60405180910390fd5b60011515600960003373ffffffffffffffffffffffffffffffffffffffff1673ffffffffffffffffffffffffffffffffffffffff1681526020019081526020016000206000837bffffffffffffffffffffffffffffffffffffffffffffffffffffffff19167bffffffffffffffffffffffffffffffffffffffffffffffffffffffff1916815260200190815260200160002060009054906101000a900460ff161515146140d1576040517f08c379a00000000000000000000000000000000000000000000000000000000081526004016140c890615f99565b60405180910390fd5b6000600960003373ffffffffffffffffffffffffffffffffffffffff1673ffffffffffffffffffffffffffffffffffffffff1681526020019081526020016000206000837bffffffffffffffffffffffffffffffffffffffffffffffffffffffff19167bffffffffffffffffffffffffffffffffffffffffffffffffffffffff1916815260200190815260200160002060006101000a81548160ff021916908315150217905550600060066000837bffffffffffffffffffffffffffffffffffffffffffffffffffffffff19167bffffffffffffffffffffffffffffffffffffffffffffffffffffffff19168152602001908152602001600020905060018160020160008282546141e29190615af4565b925050819055506000600860003373ffffffffffffffffffffffffffffffffffffffff1673ffffffffffffffffffffffffffffffffffffffff16815260200190815260200160002090506000600d60003373ffffffffffffffffffffffffffffffffffffffff1673ffffffffffffffffffffffffffffffffffffffff1681526020019081526020016000206000857bffffffffffffffffffffffffffffffffffffffffffffffffffffffff19167bffffffffffffffffffffffffffffffffffffffffffffffffffffffff19168152602001908152602001600020549050600182805490506142d09190615af4565b81146143f957600082600184805490506142ea9190615af4565b815481106142fb576142fa615b28565b5b90600052602060002090600891828204019190066004029054906101000a900460e01b90508083838154811061433457614333615b28565b5b90600052602060002090600891828204019190066004026101000a81548163ffffffff021916908360e01c021790555081600d60003373ffffffffffffffffffffffffffffffffffffffff1673ffffffffffffffffffffffffffffffffffffffff1681526020019081526020016000206000837bffffffffffffffffffffffffffffffffffffffffffffffffffffffff19167bffffffffffffffffffffffffffffffffffffffffffffffffffffffff1916815260200190815260200160002081905550505b8180548061440a57614409615b57565b5b60019003818190600052602060002090600891828204019190066004026101000a81549063ffffffff02191690559055600d60003373ffffffffffffffffffffffffffffffffffffffff1673ffffffffffffffffffffffffffffffffffffffff1681526020019081526020016000206000857bffffffffffffffffffffffffffffffffffffffffffffffffffffffff19167bffffffffffffffffffffffffffffffffffffffffffffffffffffffff191681526020019081526020016000206000905550505050565b600080606060008060008060009054906101000a900473ffffffffffffffffffffffffffffffffffffffff1673ffffffffffffffffffffffffffffffffffffffff166325442f7b336040518263ffffffff1660e01b81526004016145369190615824565b602060405180830381865afa158015614553573d6000803e3d6000fd5b505050506040513d601f19601f820116820180604052508101906145779190615854565b6145b6576040517f08c379a00000000000000000000000000000000000000000000000000000000081526004016145ad906158cd565b60405180910390fd5b86600060036000837bffffffffffffffffffffffffffffffffffffffffffffffffffffffff19167bffffffffffffffffffffffffffffffffffffffffffffffffffffffff191681526020019081526020016000206040518060c00160405290816000820160009054906101000a900473ffffffffffffffffffffffffffffffffffffffff1673ffffffffffffffffffffffffffffffffffffffff1673ffffffffffffffffffffffffffffffffffffffff1681526020016000820160149054906101000a900460e01b7bffffffffffffffffffffffffffffffffffffffffffffffffffffffff19167bffffffffffffffffffffffffffffffffffffffffffffffffffffffff191681526020016001820180546146d09061591c565b80601f01602080910402602001604051908101604052809291908181526020018280546146fc9061591c565b80156147495780601f1061471e57610100808354040283529160200191614749565b820191906000526020600020905b81548152906001019060200180831161472c57829003601f168201915b5050505050815260200160028201548152602001600382015481526020016004820154815250509050600073ffffffffffffffffffffffffffffffffffffffff16816000015173ffffffffffffffffffffffffffffffffffffffff16036147e5576040517f08c379a00000000000000000000000000000000000000000000000000000000081526004016147dc90615a68565b60405180910390fd5b6000600360008b7bffffffffffffffffffffffffffffffffffffffffffffffffffffffff19167bffffffffffffffffffffffffffffffffffffffffffffffffffffffff191681526020019081526020016000206040518060c00160405290816000820160009054906101000a900473ffffffffffffffffffffffffffffffffffffffff1673ffffffffffffffffffffffffffffffffffffffff1673ffffffffffffffffffffffffffffffffffffffff1681526020016000820160149054906101000a900460e01b7bffffffffffffffffffffffffffffffffffffffffffffffffffffffff19167bffffffffffffffffffffffffffffffffffffffffffffffffffffffff191681526020016001820180546148fe9061591c565b80601f016020809104026020016040519081016040528092919081815260200182805461492a9061591c565b80156149775780601f1061494c57610100808354040283529160200191614977565b820191906000526020600020905b81548152906001019060200180831161495a57829003601f168201915b5050505050815260200160028201548152602001600382015481526020016004820154815250509050806000015181602001518260400151836060015184608001518560a0015198509850985098509850985050505091939550919395565b60008054906101000a900473ffffffffffffffffffffffffffffffffffffffff1673ffffffffffffffffffffffffffffffffffffffff166325442f7b336040518263ffffffff1660e01b8152600401614a2f9190615824565b602060405180830381865afa158015614a4c573d6000803e3d6000fd5b505050506040513d601f19601f82011682018060405250810190614a709190615854565b614aaf576040517f08c379a0000000000000000000000000000000000000000000000000000000008152600401614aa6906158cd565b60405180910390fd5b80600060036000837bffffffffffffffffffffffffffffffffffffffffffffffffffffffff19167bffffffffffffffffffffffffffffffffffffffffffffffffffffffff191681526020019081526020016000206040518060c00160405290816000820160009054906101000a900473ffffffffffffffffffffffffffffffffffffffff1673ffffffffffffffffffffffffffffffffffffffff1673ffffffffffffffffffffffffffffffffffffffff1681526020016000820160149054906101000a900460e01b7bffffffffffffffffffffffffffffffffffffffffffffffffffffffff19167bffffffffffffffffffffffffffffffffffffffffffffffffffffffff19168152602001600182018054614bc99061591c565b80601f0160208091040260200160405190810160405280929190818152602001828054614bf59061591c565b8015614c425780601f10614c1757610100808354040283529160200191614c42565b820191906000526020600020905b815481529060010190602001808311614c2557829003601f168201915b5050505050815260200160028201548152602001600382015481526020016004820154815250509050600073ffffffffffffffffffffffffffffffffffffffff16816000015173ffffffffffffffffffffffffffffffffffffffff1603614cde576040517f08c379a0000000000000000000000000000000000000000000000000000000008152600401614cd590615a68565b60405180910390fd5b60011515600560003373ffffffffffffffffffffffffffffffffffffffff1673ffffffffffffffffffffffffffffffffffffffff1681526020019081526020016000206000857bffffffffffffffffffffffffffffffffffffffffffffffffffffffff19167bffffffffffffffffffffffffffffffffffffffffffffffffffffffff1916815260200190815260200160002060009054906101000a900460ff16151514614dc0576040517f08c379a0000000000000000000000000000000000000000000000000000000008152600401614db790615f99565b60405180910390fd5b6000600560003373ffffffffffffffffffffffffffffffffffffffff1673ffffffffffffffffffffffffffffffffffffffff1681526020019081526020016000206000857bffffffffffffffffffffffffffffffffffffffffffffffffffffffff19167bffffffffffffffffffffffffffffffffffffffffffffffffffffffff1916815260200190815260200160002060006101000a81548160ff021916908315150217905550600060036000857bffffffffffffffffffffffffffffffffffffffffffffffffffffffff19167bffffffffffffffffffffffffffffffffffffffffffffffffffffffff1916815260200190815260200160002090506001816002016000828254614ed19190615af4565b925050819055506000600460003373ffffffffffffffffffffffffffffffffffffffff1673ffffffffffffffffffffffffffffffffffffffff16815260200190815260200160002090506000600c60003373ffffffffffffffffffffffffffffffffffffffff1673ffffffffffffffffffffffffffffffffffffffff1681526020019081526020016000206000877bffffffffffffffffffffffffffffffffffffffffffffffffffffffff19167bffffffffffffffffffffffffffffffffffffffffffffffffffffffff1916815260200190815260200160002054905060018280549050614fbf9190615af4565b81146150e85760008260018480549050614fd99190615af4565b81548110614fea57614fe9615b28565b5b90600052602060002090600891828204019190066004029054906101000a900460e01b90508083838154811061502357615022615b28565b5b90600052602060002090600891828204019190066004026101000a81548163ffffffff021916908360e01c021790555081600c60003373ffffffffffffffffffffffffffffffffffffffff1673ffffffffffffffffffffffffffffffffffffffff1681526020019081526020016000206000837bffffffffffffffffffffffffffffffffffffffffffffffffffffffff19167bffffffffffffffffffffffffffffffffffffffffffffffffffffffff1916815260200190815260200160002081905550505b818054806150f9576150f8615b57565b5b60019003818190600052602060002090600891828204019190066004026101000a81549063ffffffff02191690559055600c60003373ffffffffffffffffffffffffffffffffffffffff1673ffffffffffffffffffffffffffffffffffffffff1681526020019081526020016000206000877bffffffffffffffffffffffffffffffffffffffffffffffffffffffff19167bffffffffffffffffffffffffffffffffffffffffffffffffffffffff1916815260200190815260200160002060009055505050505050565b5080546151cf9061591c565b6000825580601f106151e15750615200565b601f0160209004906000526020600020908101906151ff9190615203565b5b50565b5b8082111561521c576000816000905550600101615204565b5090565b6000604051905090565b600080fd5b600080fd5b60007fffffffff0000000000000000000000000000000000000000000000000000000082169050919050565b61526981615234565b811461527457600080fd5b50565b60008135905061528681615260565b92915050565b6000602082840312156152a2576152a161522a565b5b60006152b084828501615277565b91505092915050565b600073ffffffffffffffffffffffffffffffffffffffff82169050919050565b60006152e4826152b9565b9050919050565b6152f4816152d9565b82525050565b61530381615234565b82525050565b600081519050919050565b600082825260208201905092915050565b60005b83811015615343578082015181840152602081019050615328565b60008484015250505050565b6000601f19601f8301169050919050565b600061536b82615309565b6153758185615314565b9350615385818560208601615325565b61538e8161534f565b840191505092915050565b6000819050919050565b6153ac81615399565b82525050565b600060c0820190506153c760008301896152eb565b6153d460208301886152fa565b6153e160408301876152fa565b81810360608301526153f38186615360565b905061540260808301856153a3565b61540f60a08301846153a3565b979650505050505050565b600081519050919050565b600082825260208201905092915050565b6000819050602082019050919050565b61544f81615234565b82525050565b60006154618383615446565b60208301905092915050565b6000602082019050919050565b60006154858261541a565b61548f8185615425565b935061549a83615436565b8060005b838110156154cb5781516154b28882615455565b97506154bd8361546d565b92505060018101905061549e565b5085935050505092915050565b600060208201905081810360008301526154f2818461547a565b905092915050565b60008115159050919050565b61550f816154fa565b82525050565b600060208201905061552a6000830184615506565b92915050565b600080fd5b600080fd5b7f4e487b7100000000000000000000000000000000000000000000000000000000600052604160045260246000fd5b6155728261534f565b810181811067ffffffffffffffff821117156155915761559061553a565b5b80604052505050565b60006155a4615220565b90506155b08282615569565b919050565b600067ffffffffffffffff8211156155d0576155cf61553a565b5b6155d98261534f565b9050602081019050919050565b82818337600083830152505050565b6000615608615603846155b5565b61559a565b90508281526020810184848401111561562457615623615535565b5b61562f8482856155e6565b509392505050565b600082601f83011261564c5761564b615530565b5b813561565c8482602086016155f5565b91505092915050565b6000806040838503121561567c5761567b61522a565b5b600061568a85828601615277565b925050602083013567ffffffffffffffff8111156156ab576156aa61522f565b5b6156b785828601615637565b9150509250929050565b6156ca816154fa565b81146156d557600080fd5b50565b6000813590506156e7816156c1565b92915050565b6000602082840312156157035761570261522a565b5b6000615711848285016156d8565b91505092915050565b615723816152d9565b811461572e57600080fd5b50565b6000813590506157408161571a565b92915050565b60006020828403121561575c5761575b61522a565b5b600061576a84828501615731565b91505092915050565b6000602082840312156157895761578861522a565b5b600082013567ffffffffffffffff8111156157a7576157a661522f565b5b6157b384828501615637565b91505092915050565b600060c0820190506157d160008301896152eb565b6157de60208301886152fa565b81810360408301526157f08187615360565b90506157ff60608301866153a3565b61580c60808301856153a3565b61581960a08301846153a3565b979650505050505050565b600060208201905061583960008301846152eb565b92915050565b60008151905061584e816156c1565b92915050565b60006020828403121561586a5761586961522a565b5b60006158788482850161583f565b91505092915050565b7f55736572206973206e6f74204c6f6767656420696e0000000000000000000000600082015250565b60006158b7601583615314565b91506158c282615881565b602082019050919050565b600060208201905081810360008301526158e6816158aa565b9050919050565b7f4e487b7100000000000000000000000000000000000000000000000000000000600052602260045260246000fd5b6000600282049050600182168061593457607f821691505b602082108103615947576159466158ed565b5b50919050565b7f596f7520616c7265616479206c696b6564206974000000000000000000000000600082015250565b6000615983601483615314565b915061598e8261594d565b602082019050919050565b600060208201905081810360008301526159b281615976565b9050919050565b7f4e487b7100000000000000000000000000000000000000000000000000000000600052601160045260246000fd5b60006159f382615399565b91506159fe83615399565b9250828201905080821115615a1657615a156159b9565b5b92915050565b7f506f737420646f65736e27742065786973742e00000000000000000000000000600082015250565b6000615a52601383615314565b9150615a5d82615a1c565b602082019050919050565b60006020820190508181036000830152615a8181615a45565b9050919050565b7f4e6f7420506f7374206f776e6572000000000000000000000000000000000000600082015250565b6000615abe600e83615314565b9150615ac982615a88565b602082019050919050565b60006020820190508181036000830152615aed81615ab1565b9050919050565b6000615aff82615399565b9150615b0a83615399565b9250828203905081811115615b2257615b216159b9565b5b92915050565b7f4e487b7100000000000000000000000000000000000000000000000000000000600052603260045260246000fd5b7f4e487b7100000000000000000000000000000000000000000000000000000000600052603160045260246000fd5b60008190508160005260206000209050919050565b60006020601f8301049050919050565b600082821b905092915050565b600060088302615be87fffffffffffffffffffffffffffffffffffffffffffffffffffffffffffffffff82615bab565b615bf28683615bab565b95508019841693508086168417925050509392505050565b6000819050919050565b6000615c2f615c2a615c2584615399565b615c0a565b615399565b9050919050565b6000819050919050565b615c4983615c14565b615c5d615c5582615c36565b848454615bb8565b825550505050565b600090565b615c72615c65565b615c7d818484615c40565b505050565b5b81811015615ca157615c96600082615c6a565b600181019050615c83565b5050565b601f821115615ce657615cb781615b86565b615cc084615b9b565b81016020851015615ccf578190505b615ce3615cdb85615b9b565b830182615c82565b50505b505050565b600082821c905092915050565b6000615d0960001984600802615ceb565b1980831691505092915050565b6000615d228383615cf8565b9150826002028217905092915050565b615d3b82615309565b67ffffffffffffffff811115615d5457615d5361553a565b5b615d5e825461591c565b615d69828285615ca5565b600060209050601f831160018114615d9c5760008415615d8a578287015190505b615d948582615d16565b865550615dfc565b601f198416615daa86615b86565b60005b82811015615dd257848901518255600182019150602085019450602081019050615dad565b86831015615def5784890151615deb601f891682615cf8565b8355505b6001600288020188555050505b505050505050565b60008160601b9050919050565b6000615e1c82615e04565b9050919050565b6000615e2e82615e11565b9050919050565b615e46615e41826152d9565b615e23565b82525050565b6000819050919050565b615e67615e6282615234565b615e4c565b82525050565b600081905092915050565b6000615e8382615309565b615e8d8185615e6d565b9350615e9d818560208601615325565b80840191505092915050565b6000819050919050565b615ec4615ebf82615399565b615ea9565b82525050565b6000615ed68287615e35565b601482019150615ee68286615e56565b600482019150615ef68285615e78565b9150615f028284615eb3565b60208201915081905095945050505050565b6000615f208286615e35565b601482019150615f308285615e78565b9150615f3c8284615eb3565b602082019150819050949350505050565b7f596f7520616c7265616479206469736c696b6520697400000000000000000000600082015250565b6000615f83601683615314565b9150615f8e82615f4d565b602082019050919050565b60006020820190508181036000830152615fb281615f76565b905091905056fea26469706673582212200adafbea7e8973c2df9a35bced1829ba3525ef1cebcf2d1d270889b7edec8c4b64736f6c63430008180033",
  "linkReferences": {},
  "deployedLinkReferences": {}
}